/*
 * Copyright by the original author or authors.
 * 
 * Licensed under the Apache License, Version 2.0 (the "License");
 * you may not use this file except in compliance with the License.
 * You may obtain a copy of the License at
 *
 *    http://www.apache.org/licenses/LICENSE-2.0
 *
 * Unless required by applicable law or agreed to in writing, software
 * distributed under the License is distributed on an "AS IS" BASIS,
 * WITHOUT WARRANTIES OR CONDITIONS OF ANY KIND, either express or implied.
 * See the License for the specific language governing permissions and
 * limitations under the License.
 */

package org.bitcoinj.examples;

import com.google.common.collect.ImmutableList;
import org.bitcoinj.core.*;
import org.bitcoinj.crypto.TransactionSignature;
import org.bitcoinj.kits.WalletAppKit;
import org.bitcoinj.params.RegTestParams;
import org.bitcoinj.script.Script;
import org.bitcoinj.script.ScriptBuilder;
import org.bitcoinj.script.ScriptPattern;
import org.bouncycastle.util.encoders.Hex;

import java.io.File;
import java.util.List;
import java.util.logging.Level;
import java.util.logging.Logger;

public class P2wshTestVector {

    public static void main(String[] args) {

        Logger logger = Logger.getLogger("");
        logger.setLevel(Level.WARNING);

        NetworkParameters params = RegTestParams.get();

        String unsignedTxHex = "0100000002fe3dc9208094f3ffd12645477b3dc56f60ec4fa8e6f5d67c565d1c6b9216b36e0000000000ffffffff0815cf020f013ed6cf91d29f4202e8a58726b1ac6c79da47c23d1bee0a6925f80000000000ffffffff0100f2052a010000001976a914a30741f8145e5acadf23f751864167f32e0963f788ac00000000";
        Transaction unsignedTx = new BitcoinSerializer(params, false).makeTransaction(Hex.decode(unsignedTxHex));

        Transaction workingTx = new BitcoinSerializer(params, false).makeTransaction(Hex.decode(unsignedTxHex));
        //workingTx.getInput(0).setScriptSig(new Script(Hex.decode("304402200af4e47c9b9629dbecc21f73af989bdaa911f7e6f6c2e9394588a3aa68f81e9902204f3fcf6ade7e5abb1295b6774c8e0abd94ae62217367096bc02ee5e435b67da201")));


        String scriptCodeProgram = "4721026dccc749adc2a9d0d89497ac511f760f45c47dc5ed9cf352a58ac706453880aeadab210255a9626aebf5e29c0e6538428ba0d1dcf6ca98ffdf086aa8ced5e0d0215ea465ac";
        Script scriptCode = new Script(Hex.decode(scriptCodeProgram));
        Script scriptCodeNoSize = new Script(Hex.decode(scriptCodeProgram.substring(2)));

        Sha256Hash hash = workingTx.hashForWitnessSignature(1, scriptCodeNoSize, Coin.valueOf(49, 0), Transaction.SigHash.SINGLE, false);

        System.out.println("hash = " + hash);

        Transaction signedTx = new BitcoinSerializer(params, false).makeTransaction(Hex.decode("01000000000102fe3dc9208094f3ffd12645477b3dc56f60ec4fa8e6f5d67c565d1c6b9216b36e000000004847304402200af4e47c9b9629dbecc21f73af989bdaa911f7e6f6c2e9394588a3aa68f81e9902204f3fcf6ade7e5abb1295b6774c8e0abd94ae62217367096bc02ee5e435b67da201ffffffff0815cf020f013ed6cf91d29f4202e8a58726b1ac6c79da47c23d1bee0a6925f80000000000ffffffff0100f2052a010000001976a914a30741f8145e5acadf23f751864167f32e0963f788ac000347304402200de66acf4527789bfda55fc5459e214fa6083f936b430a762c629656216805ac0220396f550692cd347171cbc1ef1f51e15282e837bb2b30860dc77c8f78bc8501e503473044022027dc95ad6b740fe5129e7e62a75dd00f291a2aeb1200b84b09d9e3789406b6c002201a9ecd315dd6a0e632ab20bbb98948bc0c6fb204f2c286963bb48517a7058e27034721026dccc749adc2a9d0d89497ac511f760f45c47dc5ed9cf352a58ac706453880aeadab210255a9626aebf5e29c0e6538428ba0d1dcf6ca98ffdf086aa8ced5e0d0215ea465ac00000000"));

        System.out.println("signedTx = " + signedTx);


    }

}
